:040000005AEF00F0C3
:100018003E80D8CF19F0E8CF1AF0E0CF1BF0FACF26
:100028001CF0FBCF1DF0E9CF1EF0EACF1FF0E1CFA7
:1000380020F0E2CF21F0D9CF22F0DACF23F0F3CFAE
:1000480024F0F4CF25F0F6CF26F0F7CF27F0F8CF3D
:1000580028F0F5CF29F09EAA05D06CEC09F033EC16
:1000680004F09E9A29C0F5FF28C0F8FF27C0F7FFC3
:1000780026C0F6FF25C0F4FF24C0F3FF23C0DAFF33
:1000880022C0D9FF21C0E2FF20C0E1FF1FC0EAFF64
:100098001EC0E9FF1DC0FBFF1CC0FAFF1BC0E0FF2C
:1000A8001AC0E8FF19C0D8FF3E90100097EF08F07B
:1008000000010010000001001050757474696E67DB
:10081000206C6564206F6666207369720030313227
:100820003334353637383961626364656600492090
:10083000707574206974206F6E0050616E64610081
:10084000496E6974004C6564006C6564006F66668F
:10085000005B415D005B4D5D002578004900240090
:0508600026003A000033
:10086600186ECFD0260E1818D8A412D0000E01018B
:100876000A6F000E01013D6F000E0101706F000E40
:100886000101A36F000E376E010E0101A56F120064
:10089600000E0101A56F12003A0E1818D8A40FD049
:1008A600020E0101A56F01010A51010D000EF3248C
:1008B600D96E010EF420DA6E000EDF6E1200010111
:1008C6000A51010D000EF324D96E010EF420DA6EE2
:1008D60018C0DFFF01010A2B0A0E01010A6512008A
:1008E600000E01010A6F12003A0E1818D8A40FD094
:1008F600030E0101A56F01013D51010D0B0EF324FD
:10090600D96E010EF420DA6E000EDF6E12000101C0
:100916003D51010D0B0EF324D96E010EF420DA6E53
:1009260018C0DFFF01013D2B320E01013D651200AB
:10093600000E01013D6F12003A0E1818D8A40FD010
:10094600040E0101A56F01017051010D3E0EF32445
:10095600D96E010EF420DA6E000EDF6E1200010170
:100966007051010D3E0EF324D96E010EF420DA6E9D
:1009760018C0DFFF0101702B320E010170651200F5
:10098600000E0101706F12003A0E1818D8A40FD08D
:10099600050E0101A56F0101A351010D710EF3248E
:1009A600D96E010EF420DA6E000EDF6E1200010120
:1009B600A351010D710EF324D96E010EF420DA6EE7
:1009C60018C0DFFF0101A32B320E0101A36512003F
:1009D600000E0101A36F1200240E1818D8A408D027
:1009E60067EC08F0000E0101A56F010E376E1200CC
:1009F6001850D00F0101A46F1200000E0101A56F5F
:100A060012000101A551000AD8B42CD7010AD8B4A6
:100A160043D7030AD8B468D7010AD8B48DD7070AD2
:100A2600D8B4B2D7010AD8B4D7D7E7D76A0E00012F
:100A36006F6F000E0001706F8DD0250E00017419C6
:100A4600D8B405D00001745153EC09F083D0000EE0
:100A560000016D6F05D00001745153EC09F07AD096
:100A660067C06AF068C06BF069C06CF00001672B64
:100A7600000E682369236AC0F6FF6BC0F7FF6CC0DF
:100A8600F8FF0800F5CF74F000017451000AD8B4DD
:100A96001200780AD8A4DFD76FC0D9FF70C0DAFF7A
:100AA600DECF71F0DDCF72F0020E00016F27000E6F
:100AB6007023010E0001746F040E00017419D8B47E
:100AC60016D000017451020D010EF324F66E080EC5
:100AD600F420F76E0900F5500001715D0900F5502C
:100AE60000017259D8A003D00001742BE5D774C059
:100AF60073F02AD071C060F072C061F000017351CA
:100B0600020D010EF324F66E080EF420F76E0900AE
:100B1600F5CF62F00A00F5CF63F02BEC08F0000188
:100B260060510F0B00016E6F00016E51010D1D0E1D
:100B3600F324F66E080EF420F76E0800F5CF74F075
:100B46000001745153EC09F0000173070001732989
:100B5600D8A4D0D767C06AF068C06BF069C06CF0E3
:100B66000001672B000E682369236AC0F6FF6BC07D
:100B7600F7FF6CC0F8FF0800F5CF74F00001745160
:100B8600D8B412005AD70B0E116E000E126E79D021
:100B9600250E1718D8B404D0175067EC09F071D099
:100BA600000E106E04D0175067EC09F06AD008C02A
:100BB6000DF009C00EF00AC00FF0082A000E092237
:100BC6000A220DC0F6FF0EC0F7FF0FC0F8FF08009F
:100BD600F5CF17F01750000AD8B41200780AD8A437
:100BE600E2D711C0D9FF12C0DAFFDECF14F0DDCF95
:100BF60015F0020E1126000E1222010E176E040EBB
:100C06001718D8B412D01750020D010EF324F66E41
:100C1600080EF420F76E0900F550145C0900F55033
:100C26001558D8A002D0172AEAD717C016F025D033
:100C360014C001F015C002F01650020D010EF32487
:100C4600F66E080EF420F76E0900F5CF03F00A00E1
:100C5600F5CF04F0F2EC08F001500F0B136E1350B1
:100C6600010D1D0EF324F66E080EF420F76E080033
:100C7600F5CF17F0175067EC09F016061628D8A41A
:100C8600D7D708C00DF009C00EF00AC00FF0082A29
:100C9600000E09220A220DC0F6FF0EC0F7FF0FC094
:100CA600F8FF0800F5CF17F01750D8B4120070D728
:100CB600000E0001696F000167AF0CD00001671FCD
:100CC600661F651F646D000E652366236723010E8C
:100CD6000001696F000163AF0CD00001631F621F42
:100CE600611F606D000E612362236323010E000104
:100CF600691B000E00016A6F000E6B6F000E6C6FB1
:100D0600000E6D6F0001645100016511000166114E
:100D160000016711D8B442D0010E0001686F08D0F7
:100D26000001D89064376537663767370001682B4E
:100D3600000167AFF5D70001D8906A376B376C377B
:100D46006D37000164510001605D000165510001CD
:100D560061590001665100016259000167510001A5
:100D66006359D8A012D0000164510001605F0001F0
:100D760065510001615B000166510001625B000183
:100D860067510001635B00016A810001D8906733F7
:100D96006633653364330001682FCDD7000169518E
:100DA6000001D8B409D000016D1F6C1F6B1F6A6D5E
:100DB600000E6B236C236D236AC060F06BC061F07C
:100DC6006CC062F06DC063F0120044EC09F03A0E9C
:100DD60000016E6F080E00016F6F250E0001716F26
:100DE600800E706F010E0001726FD7EC07F0010ED6
:100DF60031EC09F05C0E0001756F080E0001766F8C
:100E0600400E0001776F080E0001786F6EEC07F058
:100E16003750D8B4FDD7000E376E1BEC09F020EE24
:100E26002AF0050EEBCFDBFFE806FCE22CC060F0F3
:100E36002DC061F0490E0001626F080E0001636F5C
:100E4600C6EC08F00001605100016111D8A4E0D79A
:100E56002EC060F02FC061F0370E0001626F080EE1
:100E66000001636FC6EC08F00001605100016111DA
:100E7600D8A40FD08080450E0001756F080E0001C2
:100E8600766F2E0E0001776F080E0001786F6EECFC
:100E960007F02EC060F02FC061F04D0E0001626FAA
:100EA600080E0001636FC6EC08F0000160510001F6
:100EB6006111D8A4ADD78090450E0001756F080E5C
:100EC6000001766F090E0001776F080E0001786F3A
:100ED6006EEC07F09DD73AC067F03BC068F00001A2
:100EE60067516811D8A4000E696F19EC05F07DC032
:100EF60067F07EC068F0000167516811D8A4000E43
:100F0600696F19EC05F07AC067F07BC068F07CC0A9
:100F160069F019EC05F0620E0001676F080E00011A
:100F2600686F000167516811D8A4000E696F19EC4B
:100F360005F075C067F076C068F00001675168116A
:100F4600D8A4000E696F19EC05F0620E0001676FF8
:100F5600080E0001686F000167516811D8A4000EE1
:100F6600696F19EC05F077C067F078C068F000018A
:100F760067516811D8A4000E696F19EC05F03CC0E2
:100F860067F03DC068F0000167516811D8A4000EF3
:100F9600696F19EC05F0040E0001796F3E0EE82E1C
:100FA600FED7792FFCD71200949E948C6EC07AF0EF
:100FB6006FC07BF000017A517B11D8A4000E7C6FC4
:100FC600000E376E000E31EC09F0AC9CAC98AC9478
:100FD600AB9CB88AB888B89670C064F071C065F0EA
:100FE6000001666B676B800E0001606F960E616F85
:100FF600980E626F000E636F5BEC06F060C073F0D4
:1010060061C074F062C075F063C076F073C060F0C2
:1010160074C061F075C062F076C063F0400E0001E6
:10102600646F000E656F000E666F000E676F5BECF7
:1010360006F000016005AF6E000172510001D8B4E0
:101046001200D08EF28EF28C9E9A9F9A9D8A120082
:10105600000E0001666F000E656F0001625100010F
:101066006311D8B42CD0010E0001646F06D00001C4
:10107600D890623763370001642B000163AFF7D75E
:101086000001D89065376637000162510001605D46
:101096000001635100016159D8A00AD000016251D4
:1010A6000001605F000163510001615B0001658121
:1010B6000001D890633362330001642FE1D765C025
:1010C60060F066C061F012003AC008F03BC009F05B
:1010D60008500910D8A4000E0A6EC6EC05F038C0F8
:1010E60008F039C009F008500910D8A4000E0A6E9D
:1010F600C6EC05F0590E086E080E096E0850091068
:10110600D8A4000E0A6EA4C10BF00C6AC6EC05F05A
:101116003CC008F03DC009F008500910D8A4000EE4
:101126000A6EC6EC05F0120001EE00F0A60EEE6A9D
:10113600E806FDE100EE2AF00E0EEE6AE806FDE195
:10114600E60EF66E120EF76E000EF86E0900F5CF7B
:101156007DF00900F5CF7EF0E00EF66E120EF76E0A
:10116600000EF86E00EE38F010EE06F00900F5CF2E
:10117600EEFFE550E150FAE13E903E92000EF86E29
:101186000001E8EF06F006D00001604B612B00017C
:10119600624B632B60C0D9FF61C0DAFFDF500001EC
:1011A600646F62C0F6FF63C0F7FF0800F5500008E1
:1011B600000164250001656F00016551D8A407D0C0
:1011C60060C0D9FF61C0DAFFDF50D8A4DDD70001C7
:1011D60065510001606F616B60BF61071200000E10
:1011E600066E000E056E03500410D8B41CD0010E16
:1011F600076E04D0D89003360436072A04AEFAD711
:10120600D890053606360350015C04500258D8A023
:1012160005D00350015E0450025A0580D89004326E
:101226000332072EEDD705C001F006C002F012000A
:101236000B0E306E010E316E3E0E326E010E336EA7
:10124600710E346E010E356E20EE30F000EE60F059
:10125600050EDBCFEBFFE806FCE212000001606F33
:10126600000160510001D8B406D0949E948CAC8ADB
:10127600AB88AB8E1200949E949CAC9AAB98AB9EB6
:101286001200000E926E000E806E000E936E000E1F
:10129600816E000E946E000E826E0F0EC16E1200ED
:1012A6000001616F000161515AEC09F01200000162
:1012B600606FACA2FED760C0ADFF1200016EACA29B
:1012C600FED701C0ADFF1200026E025061EC09F0BC
:1012D6001200AB50AB50AE501200510860085E08C9
:0212E6005508A9
:020000040020DA
:08000000FFFFFFFFFFFFFFFF00
:020000040030CA
:0E000000040C1F1EFF8080FF0FC00FE00F409A
:00000001FF
